:100000000C949A000C94C2000C94C2000C94C20090
:100010000C94C2000C94C2000C94C2000C94C20058
:100020000C94C2000C94C2000C94C2000C94C20048
:100030000C94C2000C94C2000C94C2000C94C20038
:100040000C940D0D0C94C2000C94DB0C0C94B50CAC
:100050000C94C2000C94C2000C94C2000C94C20018
:100060000C94570D0C94C200084AD73B3BCE016E4E
:1000700084BCBFFDC12F3D6C74319ABD56833DDAFF
:100080003D00C77F11BED9E4BB4C3E916BAAAABE0E
:10009000000000803F0000000000240027002A002C
:1000A00000000000250028002B00000000080002CE
:1000B000010000030407000000000000000046618A
:1000C000696C656420746F20726561642066726F6C
:1000D0006D204448542073656E736F722100C2B066
:1000E00043200025202054656D706572617475721F
:1000F000653A200048756D69646974793A2000009A
:100100000000002300260029000404040404040461
:1001100004020202020202030303030303010204B6
:100120000810204080010204081020010204081079
:100130002000760E11241FBECFEFD8E0DEBFCDBF6A
:1001400012E0A0E0B1E0E4E4FDE202C005900D920F
:10015000AE3AB107D9F724E0AEEAB2E001C01D9291
:10016000AF3AB207E1F710E0CAE9D0E004C0219746
:10017000FE010E949A16C939D107C9F70E94EB0EF9
:100180000C94A0160C940000CF92DF92EF92FF9295
:10019000CF9380912A048C3009F44FC038F48B300F
:1001A000F1F060E070E080EC9FE741C08551823063
:1001B000C0F7C09126046C2F70E0762F6627662763
:1001C0007F7780912704682B90E080E00E941615CD
:1001D0002DEC3CEC4CEC5DE30E94FC154AC06091B8
:1001E000260470E090E080E00E9416156B017C010F
:1001F000C0912704C7FF0AC0AC019B0160E070E01A
:1002000080E89FEB0E948A136B017C01CF706C2FFA
:1002100070E090E080E00E9418152DEC3CEC4CEC76
:100220005DE30E94FC15A70196010E948B13CF91FC
:10023000FF90EF90DF90CF900895C09126046C2F2F
:1002400070E090E080E00E9416156B017C016091E7
:1002500027046F7070E090E080E00E9418152DEC8C
:100260003CEC4CEC5DE30E94FC15A70196010E945A
:100270008B13C7FFDCCF9058DACFCF92DF92EF928B
:10028000FF92CF93DF93B0912B04A0E08111AB2FAD
:1002900080912C0490E0880F991FAC0141505F4F72
:1002A000C0903104D0903204E0903304F0903404D4
:1002B00030E020E0FA01C591D491E881B90190E0E5
:1002C00080E0EB23EA130AC02F5F3F4F6C157D05DA
:1002D0008E059F0578F36FEF7FEFCB01DF91CF9114
:1002E000FF90EF90DF90CF90089508950895AF921A
:1002F000BF92CF92DF92EF92FF920F931F93CF9313
:10030000DF936C017B018B01040F151FEB015E0174
:10031000AE18BF08C017D10759F06991D601ED9109
:10032000FC910190F081E02DC6010995892B79F7A8
:10033000C501DF91CF911F910F91FF90EF90DF905A
:10034000CF90BF90AF900895FC01538D448D252F21
:1003500030E0842F90E0821B930B541710F0CF965F
:10036000089501970895FC01918D828D981761F091
:10037000A28DAE0FBF2FB11D5D968C91928D9F5FA8
:100380009F73928F90E008958FEF9FEF0895FC0187
:10039000918D828D981731F0828DE80FF11D858D3A
:1003A00090E008958FEF9FEF0895FC01918D228DCD
:1003B000892F90E0805C9F4F821B91098F73992752
:1003C000089587E893E00E94D50121E0892B09F484
:1003D00020E0822F089580E090E0892B29F00E9490
:1003E000E10181110C9400000895FC01A48DA80F77
:1003F000B92FB11DA35ABF4F2C91848D90E0019667
:100400008F739927848FA689B7892C93A089B18986
:100410008C91837080648C93938D848D981306C027
:100420000288F389E02D80818F7D80830895EF928B
:10043000FF920F931F93CF93DF93EC0181E0888F9E
:100440009B8D8C8D98131AC0E889F989808185FF6E
:1004500015C09FB7F894EE89FF896083E889F98910
:1004600080818370806480839FBF81E090E0DF9112
:10047000CF911F910F91FF90EF900895F62E0B8D65
:1004800010E00F5F1F4F0F731127E02E8C8D8E1120
:100490000CC00FB607FCFACFE889F989808185FF87
:1004A000F5CFCE010E94F501F1CFEB8DEC0FFD2FC2
:1004B000F11DE35AFF4FF0829FB7F8940B8FEA8942
:1004C000FB8980818062CFCF0F931F93CF93DF93FF
:1004D0008C01D0E0C0E0F801EC0FFD1F64916623B1
:1004E00041F087E893E00E941702892B11F02196D2
:1004F000F2CFCE01DF91CF911F910F910895CF934D
:10050000DF93EC01888D8823B9F0AA89BB89E8893B
:10051000F9898C9185FD03C0808186FD0DC00FB6E1
:1005200007FCF7CF8C9185FFF2CF808185FFEDCF5F
:10053000CE010E94F501E9CFDF91CF91089583307C
:1005400081F028F4813099F08230A9F00895873045
:10055000A9F08830C9F08430B1F4809180008F7D9B
:1005600003C0809180008F7780938000089584B5C8
:100570008F7784BD089584B58F7DFBCF8091B000C7
:100580008F778093B00008958091B0008F7DF9CF70
:100590001F93CF93DF93282F30E0F901E655FF4FEB
:1005A0008491F901E35EFE4FD491F901E75FFE4FBC
:1005B000C491CC23A9F0162F81110E949F02EC2F29
:1005C000F0E0EE0FFF1FE056FF4FA591B4918FB7FB
:1005D000F894EC91111108C0D095DE23DC938FBF05
:1005E000DF91CF911F910895DE2BF8CFCF93DF934A
:1005F00090E0FC01E35EFE4F2491875F9E4FFC017B
:1006000084918823C9F090E0880F991FFC01EA5675
:10061000FF4FA591B491FC01E056FF4FC591D491D5
:1006200061110DC09FB7F8948C91209582238C9313
:100630008881282328839FBFDF91CF91089562305E
:1006400051F49FB7F8943C91822F809583238C932B
:10065000E8812E2BEFCF8FB7F894EC912E2B2C93B3
:100660008FBFEACF8E50806480937C0080917A00A7
:10067000806480937A0080917A0086FDFCCF80911F
:1006800078009091790008953FB7F8948091F7022F
:100690009091F802A091F902B091FA0226B5A89BB8
:1006A00005C02F3F19F00196A11DB11D3FBFBA2F04
:1006B000A92F982F8827BC01CD01620F711D811DC4
:1006C000911D42E0660F771F881F991F4A95D1F749
:1006D00008958F929F92AF92BF92CF92DF92EF9246
:1006E000FF926B017C010E9444034B015C01C11429
:1006F000D104E104F104B9F00E94440368197909B6
:100700008A099B09683E73408105910580F321E0C9
:10071000C21AD108E108F10888EE880E83E0981E1D
:10072000A11CB11CE4CFFF90EF90DF90CF90BF9061
:10073000AF909F908F9008952FB7F8946091F30237
:100740007091F4028091F5029091F6022FBF089506
:10075000CF92DF92EF92FF920F931F93CF93DF938D
:10076000CDB7DEB7C054D1400FB6F894DEBF0FBE90
:10077000CDBF0E949C0300912D0410912E04209166
:100780002F04309130046B017C01C01AD10AE20AB7
:10079000F30A97018601003D17402105310590F4C9
:1007A00080913504C05CDE4F0FB6F894DEBF0FBEFB
:1007B000CDBFDF91CF911F910F91FF90EF90DF9010
:1007C000CF90089560932D0470932E0480932F048E
:1007D000909330041092280410922704109226045B
:1007E000109225041092240462E0809129040E9452
:1007F000F60261E070E080E090E00E94690361E051
:10080000809129040E94F60260E0809129040E94F0
:10081000C80280912A048551823020F58BE291E153
:100820000197F1F762E0809129040E94F60280911D
:10083000360490E08230910538F0880F991F880FB8
:10084000991F05970197F1F7F89480E00E943D0108
:100850006F3F7F4F8F4F9F4F61F410923504789414
:1008600080E0A0CF64E170E080E090E00E94690346
:10087000D9CF81E00E943D016F3F7F4F8F4F9F4F47
:1008800061F38E010F5F1F4F6E012FEBC21A2EEF27
:10089000D20A780180E00E943D01F70160837183F4
:1008A0008283938381E00E943D01F7016483758315
:1008B00086839783F8E0EF0EF11CEC14FD0451F7EA
:1008C000789430E020E0F801C080D180E280F380AD
:1008D0004481558166817781FFEFCF16DF06EF06F1
:1008E000FF0631F04F3F8FEF58076807780719F47C
:1008F00010923504B5CFF90183E0F595E7958A9517
:10090000E1F7EC5DFB4F8081880FC416D506E60643
:10091000F70610F180832F5F3F4F085F1F4F28328B
:10092000310589F640912804209124048091250402
:10093000280F3327331F80912604280F311D809103
:100940002704820F932F911D99274817190681F6C6
:1009500081E08093350426CF8160DCCF2091CF02E7
:10096000260F3327331F21323105ECF42091810308
:10097000FC0190E080E0243069F082E00895A091CD
:10098000CF022191AC0141555D4FA40FB52FB11D90
:100990002C930196861798F38091CF02680F60938D
:1009A000CF0280E0089581E008951092810381E0F4
:1009B0008093600310925B0361E082E10E94C802B1
:1009C00061E083E10E94C802E9EBF0E080818E7F64
:1009D000808380818D7F808388E48093B80085E464
:1009E0008093BC000895CF93DF9391E09093AE0283
:1009F0008823B9F0C091B800D091BA008091BC00B2
:100A00008A7B8093BC0060E082E10E94C80260E0C3
:100A100083E10E94C8020E94D504D093BA00C0931B
:100A2000B800DF91CF910895CF92DF92EF92FF92BD
:100A30000F931F93CF93DF93D82FC62F613208F007
:100A400098C00E9444036B017C0180918103811155
:100A50006BC081E080938103809360039FEF90934C
:100A60005F0310925E039C0F90935D0380935C0381
:100A700080915C03DD0FD82BD0935C0380915B03E6
:100A8000813009F078C010925B030E9444036B012F
:100A90007C0180915C038093BB00809183039091E3
:100AA0008403A0918503B0918603892B8A2B8B2B1D
:100AB000A1F00E94440300918303109184032091CC
:100AC0008503309186036C197D098E099F090617ED
:100AD00017072807390708F448C08091BC0083FD38
:100AE000D8CF85EC8093BC000E9444036B017C014D
:100AF00080918103813009F440C080915E038C179E
:100B000010F4C0915E03EBE3F3E0A1E6B3E080E014
:100B10008C1355C08C2FDF91CF911F910F91FF90B7
:100B2000EF90DF90CF90089580918303909184039C
:100B3000A0918503B0918603892B8A2B8B2B09F416
:100B400084CF0E9444030091830310918403209179
:100B50008503309186036C197D098E099F0906175C
:100B600017072807390708F070CF809182030E9489
:100B7000F304C0E0CFCF85EEB5CF80918303909191
:100B80008403A0918503B0918603892B8A2B8B2B3C
:100B900009F4AECF0E9444030091830310918403B3
:100BA00020918503309186036C197D098E099F0978
:100BB000061717072807390708F09ACFD6CF919163
:100BC0009D938F5FA5CF8F929F92AF92BF92CF924E
:100BD000DF92EF92FF920F931F93CF93DF93D09109
:100BE0003A03D13208F0D7C0182FC09139030E94C0
:100BF00044036B017C018091810381116BC082E011
:100C000080938103109360038FEF80935F031092B2
:100C10005E03D0935D03A9E1B3E0EBE3F3E080E092
:100C2000D81391C010925C0380915C03CC0FC82B49
:100C3000C0935C0380915B03813009F088C01092FF
:100C40005B030E9444036B017C0180915C038093F1
:100C5000BB008091830390918403A0918503B091A0
:100C60008603892B8A2B8B2BA1F00E9444030091D1
:100C700083031091840320918503309186036C19BE
:100C80007D098E099F09061717072807390708F4F9
:100C900042C08091BC0083FDD8CF85EC8093BC001E
:100CA0000E9444036B017C0180918103823009F42E
:100CB00050C080915F038F3F09F46FC080915F0344
:100CC000803209F46CC080915F03803309F469C0FD
:100CD00084E026C08091830390918403A0918503D2
:100CE000B0918603892B8A2B8B2B09F484CF0E9429
:100CF00044038090830390908403A0908503B09078
:100D000086036C197D098E099F0986169706A80629
:100D1000B90608F070CF809182030E94F30485E049
:100D20001092180310923A0310921703DF91CF919B
:100D30001F910F91FF90EF90DF90CF90BF90AF90F9
:100D40009F908F9008959D9191938F5F69CF85EECD
:100D5000A5CF8091830390918403A0918503B091E6
:100D60008603892B8A2B8B2B09F49ECF0E94440388
:100D700000918303109184032091850330918603B1
:100D80006C197D098E099F0906171707280739076F
:100D900008F08ACFC0CF81E0C3CF80E0C1CF82E02E
:100DA000BFCF83E0BDCF1F93CF93DF93162FC3E454
:100DB000D4E0A881B98191E09093170398E69093CD
:100DC00039031092180310923A03ED91FC91119798
:100DD0000190F081E02D682FCD01099588819981DE
:100DE000DC01ED91FC910190F081E02D612F0995DE
:100DF00081E0DF91CF911F910C94E3050895E0917C
:100E0000160380911503E81730F4F0E0EF59FC4F1A
:100E1000808190E008958FEF9FEF089590911603E1
:100E2000809115032FEF3FEF981748F4E92FF0E07A
:100E3000EF59FC4F208130E09F5F90931603C9016A
:100E400008958091150390911603891B990B0895BD
:100E5000CF92DF92EF92FF920F931F93CF93DF9386
:100E60007C01CB018A0120911703222389F0EB0139
:100E70006B01C40ED51ECC15DD0569F06991D70153
:100E8000ED91FC910190F081E02DC7010995F3CF20
:100E9000642F0E94AE04C801DF91CF911F910F9182
:100EA000FF90EF90DF90CF900895CF93DF931F9244
:100EB000CDB7DEB76983209117032223F9F0209183
:100EC0003A03203258F021E030E0FC0133832283E2
:100ED00090E080E00F90DF91CF910895809118030A
:100EE000E82FF0E0E75EFC4F998190838F5F80935D
:100EF000180380933A0381E090E0ECCF61E0CE01EB
:100F000001960E94AE04F7CF90E080E00895CF9361
:100F1000DF93C3E0D0E061E08CE00E94C80264EFA0
:100F200071E080E090E00E94690360E08CE00E9444
:100F3000C80264EF71E080E090E00E9469032197AD
:100F400051F7DF91CF910895FC0101900020E9F75E
:100F50003197AF01481B590BBC0187E893E00C9413
:100F6000770184E291E00C94A4078F929F92AF9254
:100F7000BF920F931F93CF93DF93CDB7DEB7A197A7
:100F80000FB6F894DEBF0FBECDBF19A2423008F4F1
:100F90004AE08E010F5D1F4F842E912CB12CA12CA5
:100FA000A50194010E946813E62FB901CA01EA3035
:100FB000F4F4E05DD801EE938D01232B242B252B37
:100FC00079F790E080E0109719F0CD010E94A40716
:100FD000A1960FB6F894DEBF0FBECDBFDF91CF91C3
:100FE0001F910F91BF90AF909F908F900895E95CF3
:100FF000E1CFCF92DF92EF92FF92CF93DF936B011D
:101000007C016DE287E893E00E941702EC016627FD
:101010007727CB016C197D098E099F094AE00E9450
:10102000B5078C0F9D1FDF91CF91FF90EF90DF9060
:10103000CF900895CF93DF930E94A407EC010E9404
:10104000B1078C0F9D1FDF91CF9108950C94A407D9
:101050004F925F926F927F928F929F92AF92BF92C8
:10106000CF92DF92EF92FF920F931F93CF936B017A
:101070007C01742EAC019B010E946D16882399F0AF
:1010800087E291E0CF911F910F91FF90EF90DF9059
:10109000CF90BF90AF909F908F907F906F905F9018
:1010A0004F900C94A40746015701E894B7F82FEF2E
:1010B0003FEF4FE75FE7C501B4010E946D16811154
:1010C0000DC02FEF3FEF4FE75FE7C501B4010E946E
:1010D000691418161CF48BE291E0D4CF2FEF3FEF88
:1010E0004FE75FE4C701B6010E94EF1518161CF424
:1010F0008FE291E0C7CF2FEF3FEF4FE75FECC701E3
:10110000B6010E94691487FDF3CF20E030E0A90109
:10111000C701B6010E94691410E000E087FF0AC011
:101120006DE287E893E00E9417028C01F7FAF094D1
:10113000F7F8F094C0E060E070E080E09FE37C1698
:1011400041F020E030E040E251E40E946E14CF5FB5
:10115000F6CFA70196010E948B132B013C010E9440
:10116000E7144B015C014AE00E94B5077C01E00EE8
:10117000F11ECC23C1F1C501B4010E9416159B01DB
:10118000AC01C301B2010E948A134B015C016EE203
:1011900087E893E00E941702E80EF91EC15018F18B
:1011A00020E030E040E251E4C501B4010E94FC15AA
:1011B0002B013C010E94E7144B01B12CA12C4AE009
:1011C000C501B4010E94B507E80EF91EC501B401BE
:1011D0000E9416159B01AC01C301B2010E948A1343
:1011E0004B015C01DBCFC701CF911F910F91FF90A5
:1011F000EF90DF90CF90BF90AF909F908F907F90B7
:101200006F905F904F900895CF93DF9342E00E94DC
:101210002808EC010E94B1078C0F9D1FDF91CF9130
:101220000895BC01990F880B990B97FD0C94F90751
:101230004AE00C94B5072F923F924F925F926F92C3
:101240007F928F929F92AF92BF92CF92DF92EF9256
:10125000FF92CF93DF93CDB7DEB728970FB6F89400
:10126000DEBF0FBECDBF809143049091440421E0C6
:101270002093170328E62093390310921803109245
:101280003A03DC01ED91FC910190F081E02D6BE3DC
:10129000099580E00E94E3056EE088E60E9414054F
:1012A0001092160380931503809143049091440497
:1012B000DC01ED91FC910284F385E02D0995F82E77
:1012C0008091430490914404DC01ED91FC910284EF
:1012D000F385E02D099520E0822B9F299093460409
:1012E000809345048091430490914404DC01ED9186
:1012F000FC910284F385E02D0995F82E809143043A
:1013000090914404DC01ED91FC910284F385E02D81
:10131000099520E0822B9F299093480480934704ED
:101320008091430490914404DC01ED91FC9102848E
:10133000F385E02D0995F82E8091430490914404A3
:10134000DC01ED91FC910284F385E02D099520E00C
:10135000822B9F2990934A048093490480914304EF
:1013600090914404DC01ED91FC910284F385E02D21
:101370000995F82E8091430490914404DC01ED918D
:10138000FC910284F385E02D099520E0822B9F29B2
:1013900090934C0480934B048091430490914404B7
:1013A000DC01ED91FC910284F385E02D0995F82E86
:1013B0008091430490914404DC01ED91FC910284FE
:1013C000F385E02D099520E0822B9F2990934E0410
:1013D00080934D048091430490914404DC01ED918D
:1013E000FC910284F385E02D0995F82E8091430449
:1013F00090914404DC01ED91FC910284F385E02D91
:10140000099520E0822B9F299093500480934F04EC
:101410008091430490914404DC01ED91FC9102849D
:10142000F385E02D0995F82E8091430490914404B2
:10143000DC01ED91FC910284F385E02D0995612C8E
:101440007F2C682A792A709252046092510460912C
:101450004B0470914C04072E000C880B990B0E94D2
:10146000181520E030EF41E456E40E948B1320E091
:1014700030E04AEA53E40E946E1460935F04709374
:1014800060048093610490936204609145047091BC
:101490004604072E000C880B990B0E94181520E0BB
:1014A00030E040E858E30E94FC154B015C0180925B
:1014B000630490926404A0926504B0926604609103
:1014C000470470914804072E000C880B990B0E946A
:1014D000181520E030E040E858E30E94FC156B014D
:1014E0007C01C0926704D0926804E0926904F09293
:1014F0006A046091490470914A04072E000C880B1D
:10150000990B0E94181520E030E040E858E30E9453
:10151000FC151B012C0120926B0430926C0440924C
:101520006D0450926E0420E030E0A901C501B401C1
:101530000E94EF15A501940118160CF05058C20135
:10154000B1010E948B139B01AC01C701B6010E943F
:101550000A1420E030E044EB53E40E94FC1520E044
:1015600030E040E05FE30E94FC152BED3FE049E4F2
:1015700050E40E946E1460938704709388048093F3
:10158000890490938A0420E030E0A901C701B601E4
:101590000E94EF15181624F0F7FAF094F7F8F0947B
:1015A000A7019601C201B1010E948B139B01AC01FE
:1015B000C501B4010E940A1420E030E044EB53E47A
:1015C0000E94FC1520E030E040E05FEB0E94FC153B
:1015D0002BED3FE049E450E40E946E1460938B04CD
:1015E00070938C0480938D0490938E0460914F04CB
:1015F00070915004072E000C880B990B0E9418154F
:1016000020E030E043E852E40E946E146B017C015C
:1016100060914D0470914E04072E000C880B990BBD
:101620000E94181520E030E043E852E40E946E1456
:101630002091530430915404409155045091560424
:101640000E948A1360936F047093700480937104F6
:10165000909372042091570430915804409159049A
:1016600050915A04C701B6010E948A136093730413
:10167000709374048093750490937604B301770C8F
:10168000880B990B0E94181520E030E043E852E4E3
:101690000E946E1420915B0430915C0440915D04C3
:1016A00050915E040E948A136093770470937804CB
:1016B0008093790490937A040E949C03C090A304C1
:1016C000D090A404E090A504F090A6046C197D09C4
:1016D0008E099F090E9416152FE632E143E85AE36E
:1016E0000E94FC156B017C01C0929F04D092A00463
:1016F000E092A104F092A20420916F043091700452
:1017000040917104509172040E94FC152B013C0120
:10171000AC019B0160917B0470917C0480917D04FD
:1017200090917E040E948B1360937B0470937C04E1
:1017300080937D0490937E0420917304309174040F
:101740004091750450917604C701B6010E94FC15C2
:101750004B015C01AC019B0160917F04709180049E
:1017600080918104909182040E948B1360937F0486
:101770007093800480938104909382042091770475
:10178000309178044091790450917A04C701B601F0
:101790000E94FC15209183043091840440918504BB
:1017A000509186040E948B136D837E838F8398876C
:1017B00060938304709384048093850490938604DB
:1017C000C090AB04D090AC04E090AD04F090AE04B7
:1017D0008091A7049091A804A091A904B091AA04B3
:1017E00089839A83AB83BC832091930430919404C2
:1017F0004091950450919604C301B2010E948B134D
:10180000A70196010E94FC152B013C012091870441
:10181000309188044091890450918A0469817A81C9
:101820008B819C810E94FC159B01AC01C301B2011C
:101830000E948B1360939304709394048093950497
:1018400090939604209197043091980440919904C4
:1018500050919A04C501B4010E948B13A70196010F
:101860000E94FC156B017C0120918B0430918C044B
:1018700040918D0450918E0469817A818B819C8185
:101880000E94FC159B01AC01C701B6010E948B139D
:1018900060939704709398048093990490939A04AA
:1018A0008D819E81AF81B88580939B0490939C0429
:1018B000A0939D04B0939E040E949C036093A30494
:1018C0007093A4048093A5049093A60428960FB661
:1018D000F894DEBF0FBECDBFDF91CF91FF90EF90A8
:1018E000DF90CF90BF90AF909F908F907F906F9040
:1018F0005F904F903F902F90089585ED8093BC00AE
:101900008091830390918403A0918503B091860315
:101910000796A11DB11D23E0B695A79597958795CC
:101920002A95D1F72091BC0024FD03C010928103B9
:1019300008954091830350918403609185037091D1
:101940008603452B462B472B69F30097A105B1056C
:1019500041F025E32A95F1F700000197A109B109AB
:10196000E1CF809182030C94F3041F920F920FB683
:101970000F9211242F933F934F935F936F937F9315
:101980008F939F93AF93BF93EF93FF9387E893E079
:101990000E94F501FF91EF91BF91AF919F918F91BF
:1019A0007F916F915F914F913F912F910F900FBE5B
:1019B0000F901F9018951F920F920FB60F9211243F
:1019C0002F938F939F93EF93FF93E0919703F09161
:1019D00098038081E0919D03F0919E0382FD1BC0DE
:1019E00090818091A0038F5F8F732091A103821754
:1019F00041F0E091A003F0E0E957FC4F958F809310
:101A0000A003FF91EF919F918F912F910F900FBEA7
:101A10000F901F9018958081F4CF1F920F920FB6F0
:101A20000F9211242F933F938F939F93AF93BF9364
:101A30008091F3029091F402A091F502B091F60228
:101A40003091F20223E0230F2D3758F50196A11DA6
:101A5000B11D2093F2028093F3029093F402A093BD
:101A6000F502B093F6028091F7029091F802A091EE
:101A7000F902B091FA020196A11DB11D8093F702FF
:101A80009093F802A093F902B093FA02BF91AF913C
:101A90009F918F913F912F910F900FBE0F901F90AC
:101AA000189526E8230F0296A11DB11DD2CF1F92D3
:101AB0000F920FB60F9211242F933F934F935F9382
:101AC0006F937F938F939F93AF93BF93EF93FF9306
:101AD0008091B900887F803609F44AC0F0F58832D9
:101AE00009F4A7C018F5803109F49BC0B8F4882325
:101AF00009F4F9C0883009F494C0FF91EF91BF91C7
:101B0000AF919F918F917F916F915F914F913F9195
:101B10002F910F900FBE0F901F901895883109F4E8
:101B200088C0803251F780935F0314C0803409F479
:101B30009DC040F48033B9F38833F9F680935F0396
:101B400085ECB0C0803509F485C0883509F496C0AD
:101B5000883499F60E947D0CD0CF883909F48CC066
:101B600038F5883729F050F4883611F0803729F697
:101B700083E0809381031092F10257C0883809F402
:101B80007BC0803919F0803809F0B7CF8091F1021D
:101B9000803208F071C0E091F10281E08E0F8093F5
:101BA000F1028091BB00F0E0EF52FD4F80833DC019
:101BB000803B39F0E0F4803A09F479C0883A09F0C2
:101BC0009CCF84E0809381031092D0021092CF02C8
:101BD000E091FD02F091FE0209958091CF02811102
:101BE0000FC081E08093CF021092AF0209C0803C09
:101BF00009F4A6CF883C09F4A3CF883B09F07DCF38
:101C0000E091D00281E08E0F8093D002F0E0E155A8
:101C1000FD4F80818093BB009091D0028091CF02D4
:101C200029C080915C038093BB0085EC8093BC004D
:101C300064CF90915E0380915D03981758F5E09111
:101C40005E0381E08E0F80935E03F0E0E55CFC4F65
:101C50008081E9CFE0915E0381E08E0F80935E0387
:101C60008091BB00F0E0E55CFC4F808390915E03C7
:101C700080915D039817C8F285E8D8CFE0915E03A4
:101C800081E08E0F80935E038091BB00F0E0E55C05
:101C9000FC4F80838091600381115CCF81E0809351
:101CA0005B0384EA8093BC001092810326CF85EC0D
:101CB0008093BC00109281038091F102803230F455
:101CC000E091F102F0E0EF52FD4F10826091F102DD
:101CD00070E0E091FB02F091FC0281ED92E0099549
:101CE0001092F1020ACF10925F0334CFE7E8F3E0DD
:101CF0001382128288EE93E0A0E0B0E084839583A3
:101D0000A683B78324E031E03183208325EC30E0E3
:101D10003587248724EC30E03787268720EC30E0B5
:101D2000318B208B21EC30E0338B228B22EC30E0A6
:101D3000358B248B26EC30E0378B268B118E128E60
:101D4000138E148EE7E3F4E013821282848395836A
:101D5000A683B78386E191E091838083F093440466
:101D6000E09343048AE097EDA3EABCE38093A704E1
:101D70009093A804A093A904B093AA0488E491EED8
:101D8000AAE7BFE38093AB049093AC04A093AD04A7
:101D9000B093AE04A4E2B4E087E015968C93159757
:101DA00086E116968C931697E4E2F1E0E49117969B
:101DB000EC931797E0E1F1E0E4911896EC93189713
:101DC00040E85EE360E070E01D964D935D936D9397
:101DD0007C9350970895CF93DF93CDB7DEB72B97C1
:101DE0000FB6F894DEBF0FBECDBF789484B5826085
:101DF00084BD84B5816084BD85B5826085BD85B5AF
:101E0000816085BD80916E00816080936E0010922C
:101E100081008091810082608093810080918100A7
:101E20008160809381008091800081608093800038
:101E30008091B10084608093B1008091B000816096
:101E40008093B00080917A00846080937A008091C2
:101E50007A00826080937A0080917A00816080931A
:101E60007A0080917A00806880937A001092C10095
:101E700061E08CE00E94F60260E08DE00E94F602D4
:101E8000E0919703F091980382E08083E0919303BF
:101E9000F09194031082E0919503F09196038FECFA
:101EA000808310929F03E0919B03F0919C0386E056
:101EB0008083E0919903F0919A038081806180830F
:101EC000E0919903F0919A03808188608083E0918A
:101ED0009903F0919A03808180688083E09199034F
:101EE000F0919A0380818F7D808362E08091290444
:101EF0000E94F6020E949C03605D7740810991096F
:101F000060932D0470932E0480932F0490933004DB
:101F100087E38093360410921603109215031092F3
:101F2000180310923A030E94D50485E791E090933C
:101F3000FE028093FD0286E791E09093FC0280937D
:101F4000FB0260E089E10E94D30660E08AE10E9422
:101F5000D30668E08BE10E94D30660E08CE10E942A
:101F6000D30661E08BE60E94D3060E941B09109203
:101F70007B0410927C0410927D0410927E041092D7
:101F80007F04109280041092810410928204809148
:101F9000870490918804A0918904B0918A04809369
:101FA000930490939404A0939504B0939604809125
:101FB0008B0490918C04A0918D04B0918E04809339
:101FC000970490939804A0939904B0939A040E9464
:101FD0009C036093A3047093A4048093A50490933E
:101FE000A60468EE73E080E090E00E9469030E941E
:101FF000B10783E391E00E941A088CE591E00E940A
:102000001A0885E791E00E942608C12CD12C7601A0
:10201000460157012601370110E000E0C80168EED3
:1020200073E00E947216892B21F489E891E00E94E6
:102030002608809143049091440421E020931703E3
:1020400038E6309339031092180310923A03DC01FA
:10205000ED91FC910190F081E02D63E4099580E021
:102060000E94E30566E088E60E94140510921603BC
:10207000809315038091430490914404DC01ED9119
:10208000FC910284F385E02D09958F8380914304B0
:1020900090914404DC01ED91FC910284F385E02DE4
:1020A0000995BF81BA831982E981FA81E82BF92B5E
:1020B000FB87EA878091430490914404DC01ED9111
:1020C000FC910284F385E02D0995382E809143041C
:1020D00090914404DC01ED91FC910284F385E02DA4
:1020E00009953C821B82EB81FC81E82BF92BF88758
:1020F000EF838091430490914404DC01ED91FC91C5
:102100000284F385E02D099589878091430490919D
:102110004404DC01ED91FC910284F385E02D0995E6
:102120001C01EA85FB85BF01FF0F880B990B0E94FC
:10213000181520E030E043E852E40E946E149B0141
:10214000AC01C301B2010E948B132B013C012F8112
:102150003885B901330F880B990B0E94181520E0C0
:1021600030E043E852E40E946E149B01AC01C501CB
:10217000B4010E948B134B015C0139853E831D82A3
:102180006D817E8162297329072E000C880B990BC3
:102190000E94181520E030E043E852E40E946E14DB
:1021A0009B01AC01C701B6010E948B136B017C013E
:1021B0000F5F1F4F083B8BE0180709F02FCF20E07F
:1021C00030E84BE355E4C301B2010E946E14609302
:1021D000530470935404809355049093560420E064
:1021E00030E84BE355E4C501B4010E946E146093DE
:1021F0005704709358048093590490935A0420E034
:1022000030E84BE355E4C701B6010E946E146093B9
:102210005B0470935C0480935D0490935E040E9461
:10222000B1078BE891E00E941A088AED91E00E94C4
:102230002608609153047091540480915504909144
:1022400056040E94040985EE91E00E9426086091E0
:102250005704709158048091590490915A040E9437
:10226000040980EF91E00E94260860915B04709160
:102270005C0480915D0490915E040E94040981E9F0
:1022800091E00E941A0883E391E00E94260868EB1F
:102290007BE080E090E00E9469030E94870784EB66
:1022A00091E00E941A088EEB91E00E941A0848E221
:1022B000242E41E0342E04E111E00E941B09E5EBDD
:1022C000F0E08491F101E490F801F490FF2089F1AD
:1022D00081110E949F02EF2DF0E0EE0FFF1FE150F1
:1022E000FF4FA591B4918C91E82291E080E009F430
:1022F00090E0909313038093140381E10E943203D2
:1023000090931203809311030E94A803882351F035
:1023100080912A048B3030F08D3070F085518230FE
:1023200008F49AC1C12CD12C20ECE22E2FE7F22E1A
:1023300021C090E080E0DDCF6091250470E090E066
:1023400080E00E9418152DEC3CEC4CEC5DE30E9403
:10235000FC156B017C016091240470E090E080E04A
:102360000E9418159B01AC01C701B6010E948B1396
:102370006B017C010E94A803812C912C90ECA92E6A
:102380009FE7B92E882321F00E94C4004B015C0115
:102390000E94A803882309F471C10E94C4002B0184
:1023A0003C018EE00E943203BC01990F880B990B0F
:1023B0000E94181560930D0370930E0380930F0312
:1023C0009093100380910B0390910C0301969093CE
:1023D0000C0380930B030E949C036093070370938C
:1023E00008038093090390930A032091030330911B
:1023F00004034091050350910603621B730B840B89
:10240000950B693873418105910508F418C185ED74
:1024100091E00E9426086091930470919404809149
:1024200095049091960442E00E9428088FED91E077
:102430000E942608609197047091980480919904F5
:1024400090919A0442E00E9428088AEE91E00E944E
:10245000260860919B0470919C0480919D0490914A
:102460009E040E9404098091130390911403019724
:1024700009F00BC185EF91E00E941A0860911103E9
:1024800070911203072E000C880B990B0E941815EF
:1024900020E030E040E85AE30E94FC1520E030E400
:1024A0004CE955E40E94FC1520E030E040E251E4A4
:1024B0000E946E146093FF027093000380930103E7
:1024C000909302038DE392E00E941A0886E092E066
:1024D0000E9426086091FF02709100038091010321
:1024E000909102030E940409A7019601C701B60159
:1024F0000E946D16811111C0A5019401C501B4019E
:102500000E946D16811109C0A3019201C301B2019D
:102510000E946D16882309F4BBC08EEB90E00E94E8
:1025200064020E94B1078DE392E00E941A0884E2DF
:1025300092E00E94260860910D0370910E03809135
:102540000F039091100342E00E94280820E030E041
:102550004AE253E460910D0370910E0380910F03E2
:10256000909110030E94EF1518160CF0A8C08FE38D
:1025700092E00E941A0860919304709194048091F3
:102580009504909196040E94E0144B016091970489
:10259000709198048091990490919A040E94E0149B
:1025A0006B0184E692E00E941A088FE792E00E9495
:1025B0002608C4010E94110984E892E00E942608BE
:1025C000C6010E94110984E692E00E941A082AE9D5
:1025D000820E911C35E3831631E0930670F08AE990
:1025E000C80ED11C95E3C91691E0D90630F089E8F0
:1025F00092E00E9426080E9487078AE992E00E94E2
:102600001A0860910B0370910C03072E000C880BC5
:10261000990B97FF59C00E94F9070E94B10780915A
:10262000070390910803A0910903B0910A038093D6
:10263000030390930403A0930503B0930603A0E063
:10264000B0E0AB2B09F439CE0E94E101882309F4F4
:1026500034CE0E94000031CE609124047091250494
:1026600076276727762790E080E00E9416152DECEC
:102670003CEC4CEC5DE30E94FC157ACE412C512CD5
:1026800080EC682E8FE7782E8CCE8DEF91E0F4CE23
:1026900084EF90E00E94640242E0C701B6010E940C
:1026A000280883EE90E00E94640242E0C501B40174
:1026B0000E9428088EED90E00E94640234CF82E5EB
:1026C00092E00E94260857CF4AE00E94B507A5CFA6
:1026D000A1E21A2EAA1BBB1BFD010DC0AA1FBB1F26
:1026E000EE1FFF1FA217B307E407F50720F0A21B98
:1026F000B30BE40BF50B661F771F881F991F1A9405
:1027000069F760957095809590959B01AC01BD012E
:10271000CF0108955058BB27AA270E94A2130C94FA
:10272000B5150E94A71538F00E94AE1520F039F4B7
:102730009F3F19F426F40C947D150EF4E095E7FB09
:102740000C947715E92F0E94C61558F3BA17620743
:1027500073078407950720F079F4A6F50C94E81523
:102760000EF4E0950B2EBA2FA02D0B01B9019001AC
:102770000C01CA01A0011124FF27591B99F0593FF0
:1027800050F4503E68F11A16F040A22F232F342F38
:102790004427585FF3CF469537952795A795F04086
:1027A0005395C9F77EF41F16BA0B620B730B840B9B
:1027B000BAF09150A1F0FF0FBB1F661F771F881F53
:1027C000C2F70EC0BA0F621F731F841F48F48795AB
:1027D00077956795B795F7959E3F08F0B0CF93959D
:1027E000880F08F09927EE0F9795879508950E9416
:1027F000A71560F080E891E009F49EEF0E94AE1505
:1028000028F040E851E071F45EEF0CC00C947D15A7
:102810000C94E815E92FE0780E94C61540F3092EC4
:10282000052AB1F3261737074807590738F00E2E47
:1028300007F8E02569F0E025E0640AC0EF6307F8D7
:10284000009407FADB01B9019D01DC01CA01AD0169
:10285000EF930E9485140E94B5150E943A145F916F
:10286000552339F02BED3FE049E450FD49EC0C9441
:102870008B130895DF93DD27B92FBF7740E85FE31F
:102880001616170648075B0718F4D92F0E94F4158F
:102890009F938F937F936F930E946916E8E6F0E011
:1028A0000E9480150E94B5152F913F914F915F9125
:1028B0000E940F16DD2351F09058A2EA2AED3FE066
:1028C00049EC5FE3D0785D270E94A213DF910C945E
:1028D000B5150E94531508F481E008950E948214F2
:1028E0000C94B5150E94AE1558F00E94A71540F043
:1028F00029F45F3F29F00C94771551110C94E915D8
:102900000C947D150E94C61568F39923B1F35523E5
:1029100091F3951B550BBB27AA27621773078407F2
:1029200038F09F5F5F4F220F331F441FAA1FA9F388
:1029300035D00E2E3AF0E0E832D091505040E69576
:10294000001CCAF72BD0FE2F29D0660F771F881FD7
:10295000BB1F261737074807AB07B0E809F0BB0BCA
:10296000802DBF01FF2793585F4F3AF09E3F5105DE
:1029700078F00C9477150C94E9155F3FE4F3983EDA
:10298000D4F3869577956795B795F7959F5FC9F7C7
:10299000880F911D9695879597F90895E1E0660F48
:1029A000771F881FBB1F621773078407BA0720F0C1
:1029B000621B730B840BBA0BEE1F88F7E09508952A
:1029C0000E94E7146894B1110C94E91508950E94CF
:1029D000CE1588F09F5798F0B92F9927B751B0F0CE
:1029E000E1F0660F771F881F991F1AF0BA95C9F793
:1029F00014C0B13091F00E94E815B1E008950C9434
:102A0000E815672F782F8827B85F39F0B93FCCF3E6
:102A1000869577956795B395D9F73EF4909580950F
:102A2000709561957F4F8F4F9F4F0895E89409C02F
:102A300097FB3EF490958095709561957F4F8F4FF1
:102A40009F4F9923A9F0F92F96E9BB279395F69507
:102A5000879577956795B795F111F8CFFAF4BB0F85
:102A600011F460FF1BC06F5F7F4F8F4F9F4F16C0E9
:102A7000882311F096E911C0772321F09EE8872F73
:102A8000762F05C0662371F096E8862F70E060E02F
:102A90002AF09A95660F771F881FDAF7880F9695A8
:102AA000879597F90895990F0008550FAA0BE0E84C
:102AB000FEEF16161706E807F907C0F01216130600
:102AC000E407F50798F0621B730B840B950B39F440
:102AD0000A2661F0232B242B252B21F408950A26A6
:102AE00009F4A140A6958FEF811D811D089597F9E6
:102AF0009F6780E870E060E008959FEF80EC0895A4
:102B0000DF93CF931F930F93FF92EF92DF927B019E
:102B10008C01689406C0DA2EEF010E940F16FE01A8
:102B2000E894A5912591359145915591A6F3EF0132
:102B30000E94A213FE019701A801DA9469F7DF90C1
:102B4000EF90FF900F911F91CF91DF910895002496
:102B50000A941616170618060906089500240A9402
:102B600012161306140605060895092E0394000C88
:102B700011F4882352F0BB0F40F4BF2B11F460FF17
:102B800004C06F5F7F4F8F4F9F4F089557FD905840
:102B9000440F551F59F05F3F71F04795880F97FB21
:102BA000991F61F09F3F79F08795089512161306DB
:102BB0001406551FF2CF4695F1DF08C0161617060A
:102BC0001806991FF1CF869571056105089408953F
:102BD000E894BB2766277727CB0197F908950E94D1
:102BE000531508F48FEF08959B01AC0160E070E08D
:102BF00080E89FE30C946E140E940F160C94B51598
:102C00000E94A71538F00E94AE1520F0952311F010
:102C10000C9477150C947D1511240C94E9150E94E1
:102C2000C61570F3959FC1F3950F50E0551F629F35
:102C3000F001729FBB27F00DB11D639FAA27F00D15
:102C4000B11DAA1F649F6627B00DA11D661F829F3C
:102C50002227B00DA11D621F739FB00DA11D621F21
:102C6000839FA00D611D221F749F3327A00D611D3E
:102C7000231F849F600D211D822F762F6A2F112420
:102C80009F5750409AF0F1F088234AF0EE0FFF1F53
:102C9000BB1F661F771F881F91505040A9F79E3FAA
:102CA000510580F00C9477150C94E9155F3FE4F31F
:102CB000983ED4F3869577956795B795F795E79500
:102CC0009F5FC1F7FE2B880F911D9695879597F909
:102CD00008959B01AC010C94FC150E945315880BC0
:102CE000990B089597FB072E16F4009407D077FDF3
:102CF00009D00E94861607FC05D03EF49095819578
:102D00009F4F0895709561957F4F0895AA1BBB1B37
:102D100051E107C0AA1FBB1FA617B70710F0A61BDB
:102D2000B70B881F991F5A95A9F780959095BC01FC
:102D3000CD010895EE0FFF1F0590F491E02D099449
:042D4000F894FFCF35
:102D44000000000017027701A4017F02D501B3013E
:102D5400C70100000000550728078407FE06210765
:102D64000E07FF060D0A006E616E00696E66006F45
:102D74007666003D3D3D3D3D3D3D3D3D3D3D3D3D5A
:102D84003D3D3D3D3D3D3D3D3D3D3D3D3D3D3D3D6F
:102D94003D3D3D3D3D3D3D3D3D3D3D0043616C631D
:102DA400756C6174696E67206779726F206F6666EF
:102DB4007365747300444F204E4F54204D4F564555
:102DC400204D505536303530002E00446F6E65214D
:102DD4000050726F6772616D2077696C6C20737438
:102DE4006172742061667465722033207365636F49
:102DF4006E64730044485420574F524B530047614C
:102E0400732073656E736F72207761726D696E677C
:102E14002075702100616E676C6558203A200009A6
:102E2400616E676C6559203A200009616E676C65B4
:102E34005A203A20004E6F2066697265002A2A469D
:102E44006972652A2A006C6D3335206F6C63756D69
:102E54007520736963616B6C696B2064657265636B
:102E6400653D200053656E736F722056616C756505
:102E7400206D713220616E616C6F673A20200020F2
:102E84007C20536D6F6B6520646574656374656441
:102E9400210020204E6F2067617320646574656390
:102EA400746564002D2D2D2D2D2D2D2D2D2D2D2DC5
:102EB4002D2D2D2D2D2D2D2D2D2D2D2D2D2D00098F
:102EC400783A200009793A2000417261C3A720743E
:102ED40065727320646F6E64750044656E656D651C
:0E2EE400206120736179697369203D20000030
:00000001FF
